type=LUDC-S
mode=application
version =1.1.1.6 STD-2024.5.30
hash=EB069DDDEB32629412DC816E78AAB94E
:020000040802F0
:10000000A8EC0020E1BD04089DC304089FC30408B8
:10001000A1C30408A3C30408A5C30408000000008A
:10002000000000000000000000000000F9A9030823
:10003000A7C3040800000000A1A903083F15030896
:1000400049C804084DC8040851C8040855C8040824
:1000500059C804085DC8040861C8040865C80408D4
:1000600069C804086DC80408653A040871C8040822
:1000700075C8040879C804087DC8040881C8040844
:1000800085C8040889C804088DC8040891C80408F4
:1000900095C8040899C804089DC80408A1C80408A4
:1000A000517F0308CB04030831050308A5C80408E1
:1000B000F94C0308A9C80408214D0308ADC8040879
:1000C000B1C80408B5C80408B9C80408BDC8040804
:1000D000C1C8040821320308C5C8040865A803087C
:1000E000C5DA0208C9C80408CDC80408494D030888
:1000F000714D0308C97E0308D1C80408D5C8040897
:10010000D9C80408DDC80408473D0408E1C804084C
:10011000E5C80408E9C8040879D902084D66020850
:100120004B5A02080D110308EDC80408F1C8040871
:10013000F5C80408F9C80408FDC8040801C9040882
:1001400005C9040809C904080DC9040811C904082F
:1001500015C9040819C904081DC9040821C90408DF
:1001600025C9040829C904082DC9040831C904088F
:1001700035C9040839C904083DC9040841C904083F
:1001800045C9040849C90408593F0308E5F10208B4
:100190004DC9040851C9040855C9040859C90408BF
:1001A00000000000000000005DC9040838B504002C
:1001B0000D002900200004F01BFA002801D10120C5
:1001C00000E00020C0B232BDF8B50020039000204E
:1001D0000290DFF8C80901900420009000234FF43A
:1001E0008072DFF8BC190FF20D0004F043FA05B07D
:1001F00000BD000010B50400002004F080FBDFF813
:10020000A40900880121B0FBF1F004F03CFBDFF809
:1002100098090078002804D0012805D0032806D0CA
:10022000EDE705F0ADFBEAE706F038F8E7E706F0A2
:100230001EFAE4E738B504000D00DFF870196868AD
:10024000FFF7B4FF00281DD0A868002814D0A868C4
:1002500006F045FB0A280FDBA86806F040FBDFF834
:10026000441908800320DFF840190870DFF82C09D2
:10027000006804F0CBFB2EE0A968DFF8340906F033
:1002800086FD28E0DFF82C196868FFF78FFF00284B
:1002900005D0DFF80809006804F031FB1BE068684E
:1002A00000280CD0DFF810196868FFF77FFF0028DE
:1002B00005D140A16868FFF779FF00280BD0DFF86F
:1002C000FC0806F064FDDFF8F80806F060FDDFF8D2
:1002D000F40806F05CFD002032BD70B504000D008E
:1002E0000026DFF8E4186868FFF760FF002809D0EF
:1002F00007F03AF806003100C9B2DFF8D00806F07E
:1003000046FD17E0686800280CD0DFF8AC18686874
:10031000FFF74CFF002805D126A16868FFF746FFCC
:10032000002807D0DFF8A80806F031FDDFF8A408A0
:1003300006F02DFDF6B2300070BDF8B504000D00DA
:10034000686800281CD0A868002814D0E868002835
:1003500011D0E86806F0C3FA0600A86806F0BFFAF4
:100360000700686806F0BBFA320092B2390089B221
:1003700007F089F81CE0DFF8600806F008FD17E0D8
:10038000686800280CD0DFF830186868FFF70EFFA7
:10039000002805D107A16868FFF708FF002807D0EB
:1003A000DFF8380806F0F3FCDFF8900C06F0EFFCFD
:1003B0000020F2BD3F00000070B588B004000D00C1
:1003C000DFF81C186868FFF7F1FE002802D007F07C
:1003D0001EF9CFE0DFF80C186868FFF7E7FE002889
:1003E0001CD0A868002814D0E868002811D028691B
:1003F00000280ED0286906F072FA0600E86806F0B8
:100400006EFA320092B2010089B2A86807F021F9B1
:10041000B0E0DFF8C40706F0BAFCABE0DFF8C817BD
:100420006868FFF7C3FE00280ED0A868002806D031
:10043000A86806F054FA80B207F0B6F99AE0DFF83F
:10044000980706F0A4FC95E0DFF8A0176868FFF7AE
:10045000ADFE00282FD0A868002827D0E868002823
:1004600024D068461E2107F043FAE86806F037FA00
:100470000600A86806F033FA6A46310007F066FA0B
:100480003EA006F084FC0026E86806F028FA8642C2
:1004900007DA6846815DDFF8580706F078FC761CBD
:1004A000F2E7694636A006F072FC63E0DFF8280741
:1004B00006F06DFC5EE0DFF83C176868FFF776FE3B
:1004C000002807D007F0E3F980B201002DA006F064
:1004D0005EFC4FE0DFF820176868FFF767FE002832
:1004E00008D007F0D0F90600310049B225A006F087
:1004F0004EFC3FE0DFF804176868FFF757FE00285E
:1005000002D007F0BCF935E0686800280CD0DFF8AD
:10051000A8166868FFF74AFE002805D18FA1686811
:10052000FFF744FE002820D0DFF8D40606F02FFCA9
:10053000DFF8D00606F02BFCDFF8CC0606F027FC2F
:10054000DFF8C80606F023FCDFF8C40606F01FFC3F
:10055000DFF8C00606F01BFCDFF8BC0606F017FC4F
:10056000DFF8B80606F013FC04E06968DFF8840BD6
:1005700006F00DFC002008B070BD00000A0000006D
:100580000A25730025640A0070B588B004000D00C8
:10059000DFF88C166868FFF709FE002821D0A868EC
:1005A000002819D0E868002816D02869002813D040
:1005B000E86806F094F90600A86806F090F92A6940
:1005C000310007F0A8FBA86806F089F90100DFF800
:1005D000780A06F0DCFBBDE0DFF8FC0506F0D7FB8F
:1005E000B8E0DFF800166868FFF7E0FD002821D0CA
:1005F000A868002819D0E868002816D028690028C3
:1006000013D0E86806F06BF90600A86806F067F9F1
:100610002A69310007F0FAFBA86806F060F90100CA
:10062000DFF8240A06F0B3FB94E0DFF8AC0506F02F
:10063000AEFB8FE0DFF8B4156868FFF7B7FD002860
:1006400034D0A86800282CD0E868002829D0684653
:100650001E2107F04DF9E86806F041F90600A86888
:1006600006F03DF96A46310007F03EFBA86806F047
:1006700036F90100DFF8D40906F089FB0026E868A6
:1006800006F02DF9864207DA6846815DDFF86005DD
:1006900006F07DFB761CF2E7694676A006F077FB54
:1006A00058E0DFF8340506F072FB53E0DFF8301550
:1006B0006868FFF77BFD002815D0A86800280DD0DA
:1006C000A86806F00CF907F0FEFAA86806F007F92A
:1006D0000100DFF8300A06F05AFB3BE0DFF8F804CF
:1006E00006F055FB36E064A16868FFF75FFD00285F
:1006F00006D0DFF8141ADFF8140A06F048FB29E0E8
:10070000686800280CD0DFF8B0146868FFF74EFD69
:10071000002805D111A16868FFF748FD002814D012
:10072000DFF8EC0906F033FBDFF8E80906F02FFBF1
:10073000DFF8E40906F02BFBDFF8E00906F027FB01
:10074000DFF8DC0906F023FB04E06968DFF8A409A0
:1007500006F01DFB002008B070BD00003F00000047
:1007600038B504000D0007F066FC09F0D9FC07F06D
:10077000DBFC002802D100200AF040F90AF03AFA26
:100780000AF030FF05F021FA002032BD38B52DED1A
:10079000028B04000D008AA16868FFF707FD00289E
:1007A00014D0A86800280CD0A8680AF0FCFF51EC0F
:1007B000100B0BF00BF800EE100A002009F0A0FE61
:1007C00041E0DFF8140406F0E2FA3CE07DA168683D
:1007D000FFF7ECFC002814D0002009F03DFDB0EE3E
:1007E000408A0021DFF83C0906F0D1FA0821B0EE7A
:1007F000480A012005F0A4FEDFF82C0906F0C7FA2C
:1008000021E0686800280CD0DFF8AC136868FFF7B7
:10081000CDFC002805D16CA16868FFF7C7FC002853
:100820000CD0DFF8080906F0B2FADFF8040906F088
:10083000AEFADFF8000906F0AAFA04E06968DFF80A
:10084000B40806F0A4FA0020BDEC028B32BD38B526
:1008500004000D0007F068FC002804D1DFF8D80878
:1008600006F095FA03E0DFF86C0C06F090FA002031
:1008700032BD00000A257300656E64007CB504007B
:100880000D0050A16868FFF791FC00281ED0684653
:1008900009F000FA9DF80010DFF8A00806F077FADA
:1008A000002630009DF80010C0B2884280F085809C
:1008B00068463100C9B200EB410042883100C9B23C
:1008C000DFF87C0806F063FA761CEAE7B749686847
:1008D000FFF76CFC002818D0A868002811D0A86881
:1008E00005F0FDFF0A280CDB0020AF490870A8685E
:1008F00005F0F5FFAB490880A848006804F086F8C9
:100900005BE0B54806F043FA57E0AA496868FFF78C
:100910004DFC002804D0A148006803F0F0FF4CE033
:10092000DFF820186868FFF741FC00281CD0A86891
:10093000002815D0A8680AF036FF51EC100B0022F1
:1009400000230AF077FF0BD8A8680AF02CFF51ECBF
:10095000100B0AF03BFF00EE100A09F021FA2CE020
:100960009D4806F014FA28E0686800280BD09249E8
:100970006868FFF71BFC002805D113A16868FFF722
:1009800015FC002814D0DFF8740A06F000FADFF82E
:10099000700A06F0FCF9DFF86C0A06F0F8F9DFF8E7
:1009A000680A06F0F4F9DFF8640A06F0F0F904E0EA
:1009B0006968DFF8400706F0EAF9002076BD00001C
:1009C00073657400676574003F0000002DE9F04115
:1009D0008AB004000D0014260027E8463A003100D2
:1009E00040460AF03FFF69A16868FFF7DFFB002877
:1009F00039D005A807F052FC684605A914220AF070
:100A000075FF9DF80010DFF8D80A06F0C0F900263F
:100A10003000C0B2022880F2B4803100C9B2491C53
:100A2000DFF8C00A06F0B3F9022168463200D2B2FC
:100A300000EBC20090ED010A012005F081FDDFF816
:100A4000A80A06F0A4F9022168463200D2B200EBEF
:100A5000C20090ED020A012005F072FD4CA006F0E4
:100A600096F9761CD4E74BA16868FFF79FFB002836
:100A700065D0A86800285ED0A86805F030FF8DF822
:100A800000009DF8000000284FD09DF800000328CA
:100A90004BDA002630009DF80010C0B2884235D2F3
:100AA0003000C0B2400005EB8000C06800282DD0A7
:100AB0003000C0B2400005EB80000069002825D05E
:100AC0003000C0B2400005EB8000C0680AF06BFE49
:100AD00051EC100B0AF07AFE69463200D2B201EBFB
:100AE000C20148603000C0B2400005EB80000069E0
:100AF0000AF059FE51EC100B0AF068FE694632000C
:100B0000D2B201EBC2018860761CC3E730009DF8C9
:100B10000010C0B2884203D1684607F047FB30E0BE
:100B2000DFF8C80906F033F92BE00221DFF8C0092D
:100B300006F02DF925E0284806F029F921E068683B
:100B400000280BD01C496868FFF730FB002805D14E
:100B500011A16868FFF72AFB00280DD0DFF894097F
:100B600006F015F9DFF8900906F011F90221DFF817
:100B70008C0906F00CF904E06968DFF8780506F0E6
:100B800006F900200AB0BDE8F08100006765740036
:100B9000206D6C00736574003F000000A0E600202B
:100BA000BCBE040836E800206BE800206CC40408D2
:100BB000C8B0040874C40408DCC30408D08704085F
:100BC000C09C0408DC9C04087CC40408DCB0040855
:100BD000F48704081888040860B7040848920408D9
:100BE00084C404088CC404085CC4040894C40408C5
:100BF0009CC40408A4C40408ACC40408B4C4040815
:100C0000F89C040870B704083C880408608804084D
:100C100084880408A8880408CC880408F08804089C
:100C2000C8BE04082DE9F8432DED048B04000D0027
:100C3000DFF8681A6868FFF7B9FA002800F0BC808E
:100C40005FF00008A868002800F0B180E86800287C
:100C500000F0AD802869002800F0A98068690028AC
:100C600000F0A580DFF8381AA868FFF79FFA00287F
:100C700005D1C0A1A868FFF799FA002804D0012087
:100C800080460020070010E0DFF8181AA868FFF778
:100C90008DFA002805D1B8A1A868FFF787FA0028C7
:100CA00003D001208046012007004046C0B2012841
:100CB00077D15FF00009DFF8F019E868FFF776FAFE
:100CC000002805D1ADA1E868FFF770FA002804D02C
:100CD000002006000120814634E0DFF8D019E868E2
:100CE000FFF764FA002805D1A5A1E868FFF75EFACE
:100CF000002804D0022006000120814622E0DFF80F
:100D0000B019E868FFF752FA002805D19AA1E868FF
:100D1000FFF74CFA002804D001200600012081468C
:100D200010E0DFF89019E868FFF740FA002805D1D5
:100D3000C1A1E868FFF73AFA002803D003200600B3
:100D4000012081464846C0B2012824D168690AF0D2
:100D50002AFDB0EE408AF0EE608A28690AF023FD91
:100D6000B0EE409AF0EE609A51EC180B0AF02EFDAE
:100D700000EE900AB0EE608A51EC190B0AF026FDE5
:100D800000EE100AF0EE480A3100C9B23800C0B2D5
:100D900007F070FB4BE1E968DFF8580305F0F7FF57
:100DA00045E1A968DFF84C0305F0F1FF3FE1DFF80A
:100DB000080905F0ECFF3AE1DFF800196868FFF771
:100DC000F5F9002802D007F0B1FC30E1DFF8F018A7
:100DD0006868FFF7EBF900282FD099A1A868FFF702
:100DE000E5F9002813D0E86800280BD0E8680AF07D
:100DF000DAFC51EC100B0AF0E9FC00EE100A07F0E7
:100E000022F914E1DFF8B00805F0C1FF0FE18DA170
:100E1000A868FFF7CBF9002800F00981DFF8A408E3
:100E200005F0B5FF07F058F90621012005F088FB11
:100E3000DFF88C0A05F0ABFFF9E0DFF8AC1A686860
:100E4000FFF7B4F900281ED07DA1A868FFF7AEF91E
:100E500000280ED0E868002806D0E86805F03FFDBD
:100E600080B209F009F8E2E0DFF84C0805F08FFFE6
:100E7000DDE074A1A868FFF799F9002800F0D78099
:100E800009F01EF8D3E0DFF8641A6868FFF78EF9FE
:100E9000002824D06AA1A868FFF788F900280ED09E
:100EA000E868002806D0E86805F019FD80B209F06E
:100EB0004DF8BCE0DFF8000805F069FFB7E061A17C
:100EC000A868FFF773F9002800F0B18009F04DF829
:100ED00006003100DFF8180A05F059FFA7E0DFF837
:100EE000141A6868FFF762F900281ED054A1A86898
:100EF000FFF75CF900280ED0E868002806D0E86803
:100F000005F0EDFC80B208F0F5FF90E0DFF8A807EF
:100F100005F03DFF8BE04BA1A868FFF747F90028DB
:100F200000F0858008F0D9FF81E0DFF8CC1968680F
:100F3000FFF73CF9002825D041A1A868FFF736F952
:100F400000280ED0E868002806D0E86805F0C7FC45
:100F500080B208F0EAFF6AE0DFF85C0705F017FFEF
:100F600065E038A1A868FFF721F900285FD008F0F4
:100F7000CFFF5CE06500000064000000610000003D
:100F800073000000686800280CD0DFF8381A686821
:100F9000FFF70CF9002805D157A16868FFF706F99B
:100FA000002840D0DFF8200A05F0F1FEDFF81C0A27
:100FB00005F0EDFEDFF8180A05F0E9FEDFF8140A87
:100FC00005F0E5FEDFF8100A05F0E1FE0A2005F065
:100FD00088FADFF8080A05F0DAFEDFF8040A05F0FF
:100FE000D6FE0A2005F07DFADFF8F80905F0CFFEFD
:100FF000DFF8F40905F0CBFE0A2005F072FADFF8FD
:10100000EC0905F0C4FEDFF8E80905F0C0FEDFF8E2
:10101000E40905F0BCFEDFF8E00905F0B8FE0520A4
:1010200005F05FFA03E06968324805F0B0FE002081
:10103000BDEC048BBDE8F28372000000307F040831
:10104000736574006765740004B1040880B7040810
:1010500038B504000D0029A16868FFF7A7F800283B
:101060000ED0A868002806D0A86805F038FCC0B2E9
:1010700008F0B5FE3CE0DFF8400605F088FE37E0FA
:101080001FA16868FFF792F800280ED0A868002812
:1010900006D0A86805F023FCC0B208F0A7FE27E040
:1010A000DFF8140605F073FE22E0686800280CD013
:1010B000DFF810196868FFF779F8002805D10EA14C
:1010C0006868FFF773F800280ED0DFF8300905F0E4
:1010D0005EFE0221DFF8280905F059FE0221DFF843
:1010E000240905F054FE03E06968024805F04FFE4C
:1010F000002032BDF0B004083F0000006F6E000019
:101100006F66660090B704089C010108D4BE04080D
:101110006892040804760408307604085C760408B3
:1011200088760408A0B70408E0BE040814890408FF
:10113000384A04082C4D0408B0B7040818B1040854
:101140002CB10408BCC4040870B52DED028B04005A
:101150000D00A8A16868FFF729F800280DD0A8683D
:10116000002805D0A86805F0BAFB09F047FC3DE16E
:10117000DFF8940805F00BFE38E1DFF89018686896
:10118000FFF714F8002816D0A86800280ED0A86829
:1011900005F0A5FB012809DBA86805F0A0FB01000C
:1011A0000120491E884009F029FC1FE1DFF858089A
:1011B00005F0EDFD1AE1DFF858186868FEF7F6FF54
:1011C000002803D0002009F019FC0FE18AA63100A5
:1011D0006868FEF7EBFF002808D009F048FC06001D
:1011E0003100DFF8F40A05F0D2FDFFE0DFF8EC1A79
:1011F0006868FEF7DBFF002808D009F0FDFB80B22D
:101200000100DFF8DC0A05F0C2FDEFE09FA168688D
:10121000FEF7CCFF002815D0E8680AF0C4FAB0EE5B
:10122000408AF0EE608AA86805F059FB060051EC90
:10123000180B0AF0CBFA00EE100A3000C0B20AF028
:10124000CFFDD3E092A16868FEF7B0FF002806D07A
:10125000A86805F044FBC0B20AF02CFDC6E08DA1E1
:101260006868FEF7A3FF002806D0A86805F037FBE2
:10127000C0B20AF071FDB9E097A16868FEF796FF69
:10128000002815D0E8680AF08EFAB0EE408AF0EE39
:10129000608AA86805F023FB060051EC180B0AF0E1
:1012A00095FA00EE100A3000C0B20AF09BFC9DE0F7
:1012B00031006868FEF77AFF002806D0A86805F0BC
:1012C0000EFBC0B20AF04FFC90E0DFF81C1A686811
:1012D000FEF76CFF002815D0E8680AF064FAB0EE5B
:1012E000408AF0EE608AA86805F0F9FA060051EC31
:1012F000180B0AF06BFA00EE100A3000C0B20AF0C8
:1013000007FE73E0DFF8E4196868FEF74FFF002876
:101310000CD0E86805F0E3FA0600A86805F0DFFAEB
:101320003100C9B2C0B20AF0D0FD5FE068680028A1
:101330000CD0DFF890166868FEF738FF002805D15A
:1013400066A16868FEF732FF00284AD0DFF8A009DE
:1013500005F01DFDDFF89C19DFF89C0905F017FD6D
:1013600009F04AFB80B20100DFF8900905F00FFD9B
:10137000DFF88C0905F00BFDDFF8880905F007FDA3
:10138000052005F0AEF8DFF8800905F000FDDFF874
:101390007C0905F0FCFCDFF8780905F0F8FCDFF8C3
:1013A000740905F0F4FC642005F09BF8DFF8680987
:1013B00005F0EDFCDFF8640905F0E9FCDFF86009F1
:1013C00005F0E5FC052005F08CF8DFF8580905F07C
:1013D000DEFCDFF8540905F0DAFC052005F081F8A1
:1013E00004E06968DFF88C0C05F0D1FC0020BDEC4E
:1013F000028B70BD6D61700067657400889204088F
:1014000028590408443E0408FC5204088C4A040885
:1014100070B504000D006868002818D0686805F0F1
:101420005EFA060008F03AFF864206DA686805F0C0
:1014300056FADFF8F818087026E008F02FFF80B29F
:10144000401E0100DFF8E80805F0A1FC1CE0686818
:1014500000280CD0DFF86C156868FEF7A7FE00289E
:1014600005D11EA16868FEF7A1FE00280CD0DFF8A8
:10147000C40805F08CFC08F011FF010089B2491E78
:10148000DFF8D00C05F083FC002070BD64616300C0
:101490006F6E00006F666600F8B504000D00DFF89F
:1014A0008C68307809F082F907003800C0B2002853
:1014B00002D0012806D00AE03178DFF87C0805F078
:1014C00066FC04E03178DFF8900C05F060FC002049
:1014D000F2BD0000C0B70408736574003F0000004F
:1014E000ECBE040840B10408F8BE040858710408B2
:1014F000E04A04083889040810470408FC3F04083F
:101500002DE9F0472DED028B82B004000D0060A1A3
:101510006868FEF74BFE002839D0A868002832D052
:10152000DFF808683078022820D1A8680AF03BF973
:1015300051EC100B0AF04AF900EE100A022008F0F4
:10154000DFFFA8680AF02FF951EC100B0AF03EF902
:1015500000EE100A0BF093FAA8680AF024F953EC95
:10156000102BDFF8140B05F012FC8AE0A8680AF0D3
:101570001AF951EC100B0AF029F900EE100A307834
:1015800008F0BEFF7DE04C4805F001FC79E041A188
:101590006868FEF70BFE002816D0DFF890673078F9
:1015A00008F05AFEB0EE408A3178DFF8D00A05F034
:1015B000EEFB0821B0EE480A012004F0C1FFDFF87D
:1015C000C00A05F0E4FB5CE0686800280CD0DFF896
:1015D000F4136868FEF7EAFD002805D12EA16868BB
:1015E000FEF7E4FD00280CD0DFF8980A05F0CFFBE9
:1015F000DFF8940A05F0CBFBDFF8900A05F0C7FB93
:101600003FE0DFF88C1A6868FEF7D0FD002833D081
:1016100068460021016000200190DFF8786AA86820
:1016200005F05DF907003800C0B202280ADB6A46FF
:1016300004213B00DBB2DFF8280B10EB830006F03F
:1016400053FB07E06A4604213800C0B216EB800065
:1016500006F04AFB5FF00408E9460DF1040A424631
:10166000494650460AF032F9019A3900C9B2DFF80A
:10167000F40A05F08CFB04E06968DFF8F80905F06E
:1016800086FB002002B0BDEC028BBDE8F0870000B5
:1016900073657400676574003F0000006CC4040843
:1016A000C4C40408CCC4040804BF0408D4C4040897
:1016B000DCC4040810BF040860B7040874C404083C
:1016C000E4C40408D0B7040870B52DED048B050000
:1016D0000E0083A17068FEF769FD002833D0B06862
:1016E00000282BD0F068002828D0F0680AF05BF8BA
:1016F000B0EE408AF0EE608AB0680AF054F8B0EEBE
:10170000409AF0EE609A00210C0051EC180B0AF0A0
:101710005DF800EE900A2100B0EE608A0C0051ECFA
:10172000190B0AF053F800EE100A2100F0EE480AF7
:10173000DFF8F805007808F0B3FDBDE0DFF8280A0F
:1017400005F025FBB8E067A17068FEF72FFD0028C3
:1017500022D0DFF8D845207808F019FDB0EE408A95
:10176000F0EE608A2178DFF8040A05F010FB04210E
:10177000B0EE480A012004F0E3FEDFF8F40905F0BA
:1017800006FB0421B0EE680A012004F0D9FEDFF860
:10179000E40905F0FCFA8FE0DFF8DC197068FEF769
:1017A00005FD002833D0B06800282BD0F068002851
:1017B00028D0F06809F0F7FFB0EE408AF0EE608ABA
:1017C000B06809F0F0FFB0EE409AF0EE609A0121A7
:1017D0000C0051EC180B09F0F9FF00EE900A210003
:1017E000B0EE608A0C0051EC190B09F0EFFF00EE2F
:1017F000100A2100F0EE480ADFF83005007808F002
:101800004FFD59E0DFF8600905F0C1FA54E0DFF858
:101810006C197068FEF7CAFC002808D00BF05CF960
:1018200004002100DFF8580905F0B1FA44E0DFF8C0
:1018300054197068FEF7BAFC002810D0B068002870
:101840003AD0B06805F04BF80BF05AF9B06805F0E3
:1018500046F80100DFF8D80A05F099FA2CE0706824
:1018600000280BD057497068FEF7A0FC002805D16E
:1018700051A17068FEF79AFC002818D0DFF8B40A6E
:1018800005F085FADFF8B00A05F081FADFF8AC0A56
:1018900005F07DFADFF8A80A05F079FADFF8A40A66
:1018A00005F075FADFF8A00A05F071FA04E0716836
:1018B000DFF8C00705F06BFA0020BDEC048B70BDAB
:1018C000ECC4040838B504000D0008F0E7FC80B251
:1018D0000100DFF8780A05F05AFA002032BD000056
:1018E00073657400676574001CBF0408E0B70408E2
:1018F00054B1040828BF040834BF040870B52DEDA6
:10190000028B04000D00DFF84C1A6868FEF74EFCED
:10191000002816D0A86800280ED0A86809F043FF58
:1019200051EC100B09F052FF00EE100ADFF8FC0337
:10193000007808F0DBFE3BE0DFF82C0805F027FA22
:1019400036E01EA16868FEF731FC002815D0DFF8EC
:10195000DC63307808F0FCFBB0EE408A3178DFF8C9
:10196000F80905F014FA0421B0EE480A012004F049
:10197000E7FD13A005F00BFA1AE0686800280BD009
:1019800010496868FEF712FC002805D10AA16868B2
:10199000FEF70CFC00280BD0DFF8C00905F0F7F9C2
:1019A000DFF8BC0905F0F3F9DFF8FC0B05F0EFF9FF
:1019B0000020BDEC028B70BD3F0000006765740025
:1019C000206D6C00DCC30408A8920408A83D04083C
:1019D000806A040814650408DC5C040844530408A5
:1019E0009C5004088C5304087C4D0408CC4D04081A
:1019F000DC480408E85004081C4E04085C8904080C
:101A000088710408B46A0408F0B70408F4C4040830
:101A100040BF04082DE9F8432DED068B06000F00AA
:101A20005FF00008DFF83C197868FEF7BFFB00287C
:101A300006D1A6A421007868FEF7B8FB002804D0E0
:101A400001208046002005009FE0DFF81C1978681F
:101A5000FEF7ACFB002807D10FF2742949467868DD
:101A6000FEF7A4FB002804D00120804601200500D9
:101A70008BE098A17868FEF799FB002800F085803C
:101A80002100B868FEF792FB00283CD0386909F0C5
:101A90008AFEB0EE408AF0EE608A786909F083FE33
:101AA000B0EE409AF0EE609AF86809F07CFEB0EE75
:101AB00040AAF0EE60AA0020040051EC180B09F0D7
:101AC00085FE01EE100A2000B0EE418A040051ECC0
:101AD000190B09F07BFE00EE900A2000B0EE481AC8
:101AE000B0EE608AF0EE418A040051EC1A0B09F066
:101AF0006DFE00EE100A2000B0EE681AF0EE480A03
:101B00000BF072F841E04946B868FEF74FFB002839
:101B10003BD0386909F047FEB0EE408AF0EE608AAB
:101B2000786909F040FEB0EE409AF0EE609AF868ED
:101B300009F039FEB0EE40AAF0EE60AA01200400E0
:101B400051EC180B09F042FE01EE100A2000B0EE35
:101B5000418A040051EC190B09F038FE00EE900A9E
:101B60002000B0EE481AB0EE608AF0EE418A040020
:101B700051EC1A0B09F02AFE00EE100A2000B0EE1C
:101B8000681AF0EE480A0BF02FF84046C0B2012860
:101B90005CD1B868002854D0F86800283ED0386975
:101BA00000283BD0386909F0FEFDB0EE408AF0EE27
:101BB000608AF86809F0F7FDB0EE409AF0EE609A9E
:101BC000DFF8689101210C0051EC180B09F0FEFDC3
:101BD00000EE900A2100B0EE608A0C0051EC190B67
:101BE00009F0F4FD00EE100A2100F0EE480A99F821
:101BF000000008F055FBB86809F0D5FD0322140079
:101C000051EC100B09F0E2FD00EE100A2200290051
:101C1000C9B299F8000008F0D1FC51E0B86809F0A9
:101C2000C2FD0222140051EC100B09F0CFFD00EEB2
:101C3000100A22002900C9B23C48007808F0BEFC16
:101C40003EE0DFF8240505F0A2F839E0DFF8681976
:101C50007868FEF7ABFA002804D03448007808F022
:101C60000BFD2DE0786800280CD0DFF8501978685B
:101C7000FEF79CFA002805D11AA17868FEF796FABB
:101C8000002818D0DFF8380905F081F8DFF83409AA
:101C900005F07DF8DFF8300905F079F8DFF82C0958
:101CA00005F075F8DFF8280905F071F8DFF8240968
:101CB00005F06DF804E07968DFF8B80305F067F81F
:101CC0000020BDEC068BBDE8F2830000650000003B
:101CD000640000007300000068B10408FCC404083C
:101CE0004CBF04083F00000004C504080CC50408EC
:101CF000C8920408FFFF0100D45304084C6504088F
:101D0000587F040884650408BC6504083843040847
:101D10001C54040834510408E86A0408F4650408F3
:101D20008051040890450408344B04086AE80020F8
:101D30001CA70408E892040800B8040870B52DED4B
:101D4000028B04000D00DFF890186868FEF72EFA89
:101D5000002823D0A86809F026FD51EC100B0022C2
:101D6000002309F067FD14D8A86809F01CFD51ECA8
:101D7000100B0122DFF864380BF008F909D2E8688B
:101D800004F0ADFD002800F16E81E86804F0A7FDC5
:101D900069E1A968B74804F0FAFF64E1DFF8401888
:101DA0006868FEF703FA002811D0A86804F097FDD0
:101DB00001230200D2B2002100200BF0D9FA002842
:101DC00040F05181E968AB4804F0E1FF4BE1A8A184
:101DD0006868FEF7EBF9002815D0E86804F07FFD8D
:101DE0000600A86804F07BFD320092B20100C9B27F
:101DF00000200BF086FB002840F03581E9689D4803
:101E000004F0C5FF2FE1DFF8DC176868FEF7CEF9B4
:101E1000002815D0E86804F062FD0600A86804F008
:101E20005EFD320092B20100C9B200200BF008FC46
:101E3000002840F01881E9688E4804F0A8FF12E1FC
:101E4000DFF874176868FEF7B1F900281AD0A8689F
:101E500004F045FD002810D4A86804F040FD0228D5
:101E60000BDAA86804F03BFDC0B20BF087FCA96850
:101E7000DFF8180A04F08BFFF5E0A9687D4804F04C
:101E800086FFF0E0DFF8081A6868FEF78FF900288F
:101E90001BD0A86804F023FD002811D4A86804F022
:101EA0001EFD01280CDAA86804F019FDC0B20BF081
:101EB0001FFAC0B20100DFF8540A04F068FFD2E054
:101EC000A9686C4804F063FFCDE0DFF8441A686845
:101ED000FEF76CF900281FD0A86804F000FD002868
:101EE00015D4A86804F0FBFC022810DAA86804F0F6
:101EF000F6FCC0B20BF0FAFC10EE100A0BF040FE3C
:101F000002000B00DFF80C0A04F041FFABE0A96807
:101F1000584804F03CFFA6E0DFF8FC196868FEF7BB
:101F200045F900281FD0A86804F0D9FC002815D472
:101F3000A86804F0D4FC022810DAA86804F0CFFCEA
:101F4000C0B20BF0AFFC10EE100A0BF019FE02004D
:101F50000B00DFF8C00904F01AFF84E0A9684548C7
:101F600004F015FF7FE0DFF8B4196868FEF71EF98A
:101F7000002843D0A86809F016FC51EC100B002291
:101F8000DFF89C3909F056FC33D8A86809F00BFC3F
:101F900051EC100B0122DFF88C390AF0F7FF28D240
:101FA000E86804F09CFC00281ED4E86804F097FC64
:101FB000022819DAA86809F0F6FBB0EE408AF0EEC4
:101FC000608AE86804F08BFC060051EC180B09F0FD
:101FD000FDFB00EE100A3000C0B20BF003FCDFF88E
:101FE000480904F0D4FE3EE0E968224804F0CFFE40
:101FF00039E0A9681F4804F0CAFE34E06868002888
:102000000CD0DFF8B8156868FEF7D0F8002805D1C5
:1020100052A16868FEF7CAF8002820D0DFF8A005B2
:1020200004F0B5FEDFF8040904F0B1FEDFF80009A2
:1020300004F0ADFEDFF8FC0804F0A9FEDFF8F808B4
:1020400004F0A5FEDFF8F40804F0A1FEDFF8F008C4
:1020500004F09DFEDFF8EC0804F099FE03E06968E7
:10206000044804F094FE0020BDEC028B70BD00001B
:1020700064697200F0B0040834A7040820B80408AA
:10208000E0BE040880890408884B04086C4E0408EC
:1020900014C504086400010838B504000D00DFF819
:1020A000A8186868FEF782F800281FD0A8680028E2
:1020B00017D0A86804F013FC01280DDBA86804F011
:1020C0000EFC032808DAA86804F009FC0100C9B274
:1020D000012004F075F93BE0DFF8700804F057FECA
:1020E00036E0DFF8680804F052FE31E0DFF86018EF
:1020F0006868FEF75BF8002808D00121002004F092
:102100005FF9DFF8500804F042FE21E0686800281B
:102110000CD0DFF8A8146868FEF748F8002805D14D
:102120000EA16868FEF742F800280CD0DFF82808F6
:1021300004F02DFEDFF8240804F029FEDFF8200863
:1021400004F025FE04E06968DFF8180804F01FFEBB
:10215000002032BD3449040810B804083F000000D4
:102160000401010830B8040860B7040840B8040846
:102170007CB104081CC5040858BF040824C5040821
:10218000149D04082CC5040838B504000D00DFF8C0
:10219000D8176868FEF70AF8002835D0DFF8381439
:1021A000A868FEF703F800281CD0E868002814D0BF
:1021B000E86804F094FB0A280FDBE86804F08FFB62
:1021C000DFF8A81708800120DFF8A4170870DFF8EF
:1021D000A407006802F01AFCA8E0DFF89C0704F0EE
:1021E000D6FDA3E0DFF8D013A868FDF7DFFF0028D5
:1021F00005D0DFF88007006802F081FB96E0DFF889
:102200007C0704F0C4FD91E0DFF8CC136868FDF7AB
:10221000CDFF002820D0A868002818D0A86809F0B1
:10222000C2FA51EC100B0022002309F003FB0ED878
:1022300003F074FDA86809F0B6FA51EC100B09F030
:10224000C5FA00EE100A012003F0F6FC6EE0DFF89C
:102250002C0704F09CFD69E0DFF85C136868FDF76B
:10226000A5FF002804D003F059FD03F02FFD5DE029
:10227000DFF80C176868FDF799FF002818D0A868E8
:10228000002853D0A86809F08EFA51EC100B0022F8
:10229000002309F0CFFA49D8A86809F084FA51EC74
:1022A000100B09F093FA00EE100A03F05DFF3DE019
:1022B000DFF8D0166868FDF779FF002802D003F038
:1022C0008EFC33E0686800280BD0BC496868FDF7D5
:1022D0006DFF002805D11EA16868FDF767FF002883
:1022E0001FD0DFF8A40604F052FDDFF8A00604F0CA
:1022F0004EFDDFF89C0604F04AFDDFF8180B04F0F1
:1023000046FDDFF8140B04F042FD0A2004F0E9F862
:10231000DFF8080B04F03BFDDFF8040B04F037FD99
:1023200004E06968DFF83C0604F031FD002032BDAE
:10233000309D0408B4760408DC3E04086C470408A9
:102340009C430408BC4E04080C4F040850B8040811
:102350003F00000034C5040860B80408A4890408DC
:1023600064540408C4C40408CCC40408F8B50400C8
:102370000D0099496868FDF719FF002824D0A86866
:1023800000281CD0E868002814D02869002811D043
:10239000286904F0A4FA0600E86804F0A0FA07002F
:1023A000A86804F09CFA3200D2B23900C0B20BF037
:1023B00018FDF6E0DFF8740A04F0E9FCF1E0DFF85C
:1023C000700A04F0E4FCECE07B496868FDF7EEFE7F
:1023D000002802D00BF0C2FDE3E0DFF8581A68686D
:1023E000FDF7E4FE00280DD00CF09FF9012804D180
:1023F000DFF8440A04F0CBFCD3E0DFF8400A04F035
:10240000C6FCCEE069A16868FDF7D0FE00283AD08E
:10241000DFF82C1AA868FDF7C9FE002817D0E86875
:1024200000280FD0286900280CD0286904F057FA3A
:102430000600E86804F053FA3100C9B2C0B20BF0EC
:102440000BFEAEE0DFF8E80904F0A1FCA9E0DFF83C
:10245000F419A868FDF7AAFE00280ED0E868002845
:1024600006D0E86804F03BFAC0B20BF088FE98E0B2
:10247000DFF8BC0904F08BFC93E0A968DFF8E40402
:1024800004F085FC8DE04AA16868FDF78FFE002806
:102490004CD0DFF8AC19A868FDF788FE002820D0E2
:1024A000E868002818D02869002815D06869002835
:1024B00012D0686904F013FA0600286904F00FFAD4
:1024C0000700E86804F00BFA3200D2B2390089B292
:1024D000C0B20BF006FE64E0DFF86C0904F057FCB4
:1024E0005FE0DFF86019A868FDF760FE002817D0EC
:1024F000E86800280FD0286900280CD0286904F06B
:10250000EEF90600E86804F0EAF9310089B2C0B2D9
:102510000BF070FE45E0DFF8300904F038FC40E0D5
:10252000A968DFF8400404F032FC3AE0686800284B
:102530000BD022496868FDF739FE002805D11DA19E
:102540006868FDF733FE002826D0DFF8000904F0A4
:102550001EFCDFF8FC0804F01AFCDFF8F80804F0B1
:1025600016FC032003F0BDFFDFF8EC0804F00FFCBD
:10257000DFF8E80804F00BFC032003F0B2FFDFF8FB
:10258000E00804F004FCDFF8DC0804F000FCDFF8ED
:10259000D80804F0FCFB04E06968DFF8C80304F025
:1025A000F6FB0020F2BD0000B871040867657400F6
:1025B000736574003F00000074C40408DCC30408A1
:1025C0000893040800440408F0450408E076040871
:1025D000AC5404081C5D04086CC404080088B340B3
:1025E0003CC5040844C504082DE9F0412DED048BD9
:1025F00084B005000E00A3A17068FDF7D7FD002888
:102600000CD00CF0CCFBDFF8640800780428C0F292
:102610003281DFF85C0804F0BAFB2CE1DFF85418D3
:102620007068FDF7C3FD002840F0258196A1706811
:10263000FDF7BCFD00280CD00CF0CBFBDFF82C081C
:1026400000780428C0F21781DFF82C0804F09FFB03
:1026500011E1DFF828187068FDF7A8FD00280BD0FD
:10266000B06804F03CF900EE100A0021B8EEC00A90
:1026700000200CF011FBFEE0DFF84C1B7068FDF74A
:1026800095FD002840F0F780DFF8401B7068FDF7EB
:102690008DFD002837D0B068002830D0F0680028C1
:1026A0002DD0306900282AD0306904F018F90400D0
:1026B000F06809F078F8B0EE408AF0EE608AB06811
:1026C00009F071F8B0EE409AF0EE609A21000C002B
:1026D00051EC180B09F07AF800EE900A2100B0EEE8
:1026E000608A0C0051EC190B09F070F800EE100A2A
:1026F0002100F0EE480A00200CF024F9BBE09E48CF
:1027000004F045FBB7E07DA17068FDF74FFD0028A0
:102710004DD07BA1B068FDF749FD002818D0F068C6
:10272000002810D0F06804F0DAF8C0B20CF087FA94
:1027300010EE100A0BF024FA02000B00DFF8180B61
:1027400004F025FB97E0F168864804F020FB92E056
:102750006CA1B068FDF72AFD002823D0F06800289E
:102760001BD03069002818D0306909F01CF8B0EE91
:10277000408AF0EE608AF06804F0B1F807000121A9
:102780000C0051EC180B09F021F800EE100A2100A2
:102790003800C0B20CF080FA6DE0F168714804F0C6
:1027A000F6FA68E0B1686F4804F0F1FA63E0DFF828
:1027B000AC1A7068FDF7FAFC00285CD1DFF8A01AAB
:1027C0007068FDF7F3FC002821D001A8DFF8941A07
:1027D000D1E90023C0E900230020ADF80000F06833
:1027E00004F07DF8ADF80000B06804F078F88DF8DA
:1027F000070002246F460DF1080822003900404608
:1028000009F064F8082101A80CF0BFFD33E07068FE
:1028100000280CD0DFF8501A7068FDF7C7FC0028BC
:1028200005D139A17068FDF7C1FC00281FD0DFF881
:102830003C0A04F0ACFADFF8380A04F0A8FADFF832
:10284000340A04F0A4FADFF8300A04F0A0FADFF842
:102850002C0A04F09CFA0A2003F043FEDFF8200A59
:1028600004F095FADFF81C0A04F091FA03E07168AD
:102870003C4804F08CFA002004B0BDEC048BBDE8A9
:10288000F08100006F6E00006F6666004CC50408A2
:1028900064BF040838B504000D00DFF8EC1968685F
:1028A000FDF784FC002827D1DFF8E0196868FDF700
:1028B0007DFC002820D1686800280CD0DFF8A8191A
:1028C0006868FDF773FC002805D10FA16868FDF763
:1028D0006DFC00280CD0DFF8B80904F058FADFF8D6
:1028E000B40904F054FADFF8B00904F050FA03E038
:1028F00069681C4804F04BFA002032BD646566002C
:1029000067657400736574003F00000070B80408C8
:1029100070BF040880B804087CBF040888BF04089E
:1029200000407FC000407F4090B10408C88904087F
:102930004C9D0408289304081C6B0408F4540408F4
:102940000C770408EC890408F4C4040890B804085F
:1029500054C50408689D040848930408C84704083F
:102960006C590408F0B004085CC5040836E800207F
:102970006BE80020A0E6002060B70408A0B80408B7
:10298000BCC40408D4C30408849D0408E8410408B6
:102990002448040870B52DED068B04000D00DFF807
:1029A000181B6868FDF702FC002853D0A8680028AF
:1029B0004BD0E868002848D02869002845D06869CD
:1029C000002842D0A86803F08AFFC0B208F02CFAB1
:1029D000686908F0E8FEB0EE408AF0EE608A286987
:1029E00008F0E1FEB0EE409AF0EE609AE86808F078
:1029F000DAFEB0EE40AAF0EE60AAA86803F06FFF1E
:102A0000060051EC180B08F0E1FE01EE100AB0EEE2
:102A1000418A51EC190B08F0D9FE00EE900AB0EE95
:102A2000481AB0EE608AF0EE418A51EC1A0B08F0B9
:102A3000CDFE00EE100AB0EE681AF0EE480A002152
:102A40003000C0B208F07DF9E0E1DFF8740A04F06C
:102A50009EF9DBE1DFF86C1A6868FDF7A7FB002838
:102A600053D0A86800284BD0E868002848D02869CF
:102A7000002845D06869002842D0A86803F02FFFDD
:102A8000C0B208F0D1F9686908F08DFEB0EE408A56
:102A9000F0EE608A286908F086FEB0EE409AF0EE0B
:102AA000609AE86808F07FFEB0EE40AAF0EE60AAF7
:102AB000A86803F014FF060051EC180B08F086FE1E
:102AC00001EE100AB0EE418A51EC190B08F07EFEBF
:102AD00000EE900AB0EE481AB0EE608AF0EE418A3D
:102AE00051EC1A0B08F072FE00EE100AB0EE681AF4
:102AF000F0EE480A01213000C0B208F022F985E169
:102B0000DFF8BC0904F043F980E1DFF8BC1968681C
:102B1000FDF74CFB002853D0A86800284BD0E8688C
:102B2000002848D02869002845D06869002842D08C
:102B3000A86803F0D4FEC0B208F076F9686908F01E
:102B400032FEB0EE408AF0EE608A286908F02BFE73
:102B5000B0EE409AF0EE609AE86808F024FEB0EE1D
:102B600040AAF0EE60AAA86803F0B9FE060051EC96
:102B7000180B08F02BFE01EE100AB0EE418A51EC62
:102B8000190B08F023FE00EE900AB0EE481AB0EEE2
:102B9000608AF0EE418A51EC1A0B08F017FE00EE45
:102BA000100AB0EE681AF0EE480A02213000C0B2F6
:102BB00008F0C7F82AE1DFF8080904F0E8F825E191
:102BC000DFF808196868FDF7F1FA002853D0A86803
:102BD00000284BD0E868002848D02869002845D054
:102BE0006869002842D0A86803F079FEC0B208F0F6
:102BF0001BF9686908F0D7FDB0EE408AF0EE608AF4
:102C0000286908F0D0FDB0EE409AF0EE609AE868CE
:102C100008F0C9FDB0EE40AAF0EE60AAA86803F083
:102C20005EFE060051EC180B08F0D0FD01EE100A14
:102C3000B0EE418A51EC190B08F0C8FD00EE900A85
:102C4000B0EE481AB0EE608AF0EE418A51EC1A0BF1
:102C500008F0BCFD00EE100AB0EE681AF0EE480A6B
:102C600003213000C0B208F06CF8CFE0DFF8500864
:102C700004F08DF8CAE0DFF858186868FDF796FA96
:102C8000002814D0A86800280CD0A86803F027FEFC
:102C9000C0B208F0C9F8A86803F021FEC0B208F07D
:102CA00015F9B3E0DFF8180804F071F8AEE0DFF8CA
:102CB000001B6868FDF77AFA00282AD0A868002867
:102CC00022D0A86803F00BFEC0B208F019F8060085
:102CD0003000C0B200280BD1A86803F000FEC0B2DB
:102CE00007F060FF0100DFF8CC0A04F050F88DE037
:102CF000A86803F0F4FDC0B207F054FF0100DFF84C
:102D0000B80A04F044F881E0DFF8B40704F03FF8B3
:102D10007CE0DFF8AC1A6868FDF748FA002805D0B7
:102D20000321DFF8A00A04F032F86FE0DFF8981A08
:102D30006868FDF73BFA00281BD03AA1A868FDF7A8
:102D400035FA00280AD04FF48041DFF8800A0CF0F1
:102D5000D4FBDFF87C0A04F01AF857E04FF4804106
:102D6000DFF8680A0CF0CBFBDFF8680A04F00FF814
:102D70004CE0686800280CD0DFF8EC146868FDF7B8
:102D800015FA002805D128A16868FDF70FFA002878
:102D900037D0DFF8440A03F0FAFFDFF8400A03F007
:102DA000F6FFDFF83C0A03F0F2FFDFF8380A03F021
:102DB000EEFF022003F095FBDFF82C0A03F0E7FF9B
:102DC000DFF8280A03F0E3FFDFF8240A03F0DFFF4F
:102DD000DFF8200A03F0DBFF0A2003F082FB002665
:102DE0003000C0B2032811DA3000C0B207F0DAFEBA
:102DF00002003100C9B2DFF8000A03F0C8FF761CF8
:102E0000EEE76968DFF8980B03F0C1FF0020BDEC26
:102E1000068B70BD6444040868930408DC4B040806
:102E2000584204086F6666003F0000004CA7040883
:102E300064A7040864C504087CA7040894A70408D0
:102E40006CC5040874C5040888930408387704081E
:102E50007C40040864770408CC510408304C040812
:102E6000506B04081C6104085861040878000020B5
:102E7000B0B804086CC40408C0B804087CC50408D1
:102E80002DE9F0412DED088B05000E009FEDCABA2B
:102E9000CAA421007068FDF789F9002823D0B06822
:102EA00000281AD0B06803F01AFDC0B20CF0CAFBBB
:102EB000B0EE408AB06803F012FDC0B20CF061FBC6
:102EC000040018EE100A0AF05BFE02000B0021005D
:102ED000DFF8D40A03F05BFF68E1B168DFF8C00AED
:102EE00003F055FF62E1B6A17068FDF75FF90028B5
:102EF0000CD00CF0D7FB10EE100A0AF041FE0200D5
:102F00000B00DFF8A80A03F042FF4FE1ADA17068A3
:102F1000FDF74CF900283AD00CF0C4FB10EE100A73
:102F20000AF02EFE02000B00DFF8800A03F02FFFEC
:102F300000273800C0B2032819DAB7EE008A38003B
:102F4000C0B208F0A5FAF0EE408A3800C0B207F02F
:102F500029FE040018EE900A0AF012FE02000B008F
:102F60002100DFF8500A03F012FF7F1CE1E7032085
:102F70000CF068FBB0EE40BA1BEE100A0AF000FE3F
:102F800002000B00DFF8300A03F001FF0EE1DFF86A
:102F90002C1A7068FDF70AF9002806D0B06803F013
:102FA0009EFCC0B20CF036FF00E1DFF8141A706826
:102FB000FDF7FCF800281CD00A2003F092FA002448
:102FC0002000C0B2092880F2F18000272000C0B2A2
:102FD0000DF0BAF88046424692B22100C9B2491CAF
:102FE000DFF8E00903F0D3FE0A2003F07AFA641C4C
:102FF000E6E7DFF8D4197068FDF7D8F8002800F08C
:103000008F802100B068FDF7D1F800283ED0F0682D
:10301000002836D0F06803F062FCC0B20CF0B8FAB9
:10302000F0EE409AB0EE60AAF0EE41AADFF89C09FB
:10303000007804280ADBF06803F051FCC0B20CF001
:10304000A0FA0100DFF8880903F0A1FE0821B0EE24
:10305000690A012003F074FADFF8780903F097FE9B
:103060000821B0EE4A0A012003F06AFADFF8680985
:1030700003F08DFE0821B0EE6A0A012003F060FA29
:1030800094E0DFF8580903F082FE8FE070A1B06889
:10309000FDF78CF8002800F08980F06800283AD00D
:1030A0003069002837D07069002834D0B069002812
:1030B00031D0306908F077FB51EC100B08F086FB3B
:1030C00000EE100AB0EE408A706908F06CFB51EC1B
:1030D000100B08F07BFB00EE100AF0EE408AB0699E
:1030E00008F061FB51EC100B08F070FB00EE100AC9
:1030F000B0EE409AF06803F0F2FBB0EE480AF0EE52
:10310000680AB0EE491AC0B20CF06CFADFF8D008C9
:1031100003F03DFE4AE0DFF8C40803F038FE45E066
:10312000706800280BD050497068FDF73FF8002800
:1031300005D148A17068FDF739F8002831D0DFF8D3
:10314000A40803F024FEDFF8A00803F020FEDFF857
:103150009C0803F01CFEDFF8340B03F018FEDFF8C8
:10316000300B03F014FEDFF82C0B03F010FEDFF839
:10317000280B03F00CFEDFF8240B03F008FE0024FC
:103180002000C0B2052811DA2000C0B20CF0F9F915
:1031900002002100C9B2DFF8600603F0F8FD641CEC
:1031A000EEE77168DFF8F80703F0F1FD0020BDECF1
:1031B000088BBDE8F0810000000000006765740026
:1031C000656E7600616C6C0084C504088CC50408CB
:1031D00038B504000D006868002819D0686808F048
:1031E000E2FA51EC100B0022002308F023FB0FD869
:1031F000686808F0D8FA51EC100B08F0E7FA00EE16
:10320000100A07F04DFFDFF8D80703F0C0FD1CE0FF
:10321000686800280BD014496868FCF7C7FF0028CD
:1032200005D10CA16868FCF7C1FF002808D0DFF8C1
:10323000740A03F0ACFDDFF8700A03F0A8FD04E0A7
:103240006968DFF85C0703F0A2FD002032BD0000D2
:10325000736574003F000000A893040894C5040837
:1032600014C504089CC50408DCC30408C8930408FA
:1032700090770408BC770408C842040894610408E5
:103280005C5D04083C55040894BF0408A4C5040808
:10329000E8930408A4B10408B8B1040870B52DED92
:1032A000048B04000D0082A16868FCF77FFF0028F2
:1032B0006ED0A868002866D0A86803F010FBC0B2E2
:1032C00008F054F8B0EE408AF0EE608AB0EE419A11
:1032D000A86803F004FB00282AD1DFF8F006007884
:1032E00004280ADBA86803F0FAFAC0B207F05AFC17
:1032F0000100DFF8B80903F04AFD0821B0EE480AE2
:10330000012003F01DF9DFF8A80903F040FD0821B2
:10331000B0EE680A012003F013F9DFF8980903F012
:1033200036FD0821B0EE490A012003F009F9BBE09F
:10333000DFF89806007804280ADBA86803F0CFFAC3
:10334000C0B207F02FFC0100DFF86C0903F01FFD8D
:103350000821B0EE480A012003F0F2F8DFF8740605
:1033600003F015FD0821B0EE680A012003F0E8F82B
:10337000DFF8640603F00BFD0821B0EE490A0120D6
:1033800003F0DEF890E0DFF8540603F000FD8BE078
:1033900048A16868FCF70AFF002842D0A868002806
:1033A0003AD0E868002837D02869002834D0686906
:1033B000002831D0E86808F0F6F951EC100B08F05D
:1033C00005FA00EE100AB0EE408A286908F0EBF921
:1033D00051EC100B08F0FAF900EE100AF0EE408AFA
:1033E000686908F0E0F951EC100B08F0EFF900EE15
:1033F000100AB0EE409AA86803F071FAB0EE480ADD
:10340000F0EE680AB0EE491AC0B207F0EBFFDFF841
:10341000D00503F0BCFC47E0DFF8C00503F0B7FCC3
:1034200042E0686800280CD0DFF8F81A6868FCF7FA
:10343000BDFE002805D121A16868FCF7B7FE002871
:103440002DD0DFF8E40A03F0A2FCDFF8E00A03F075
:103450009EFCDFF8DC0A03F09AFC0A2003F041F836
:1034600000263000C0B203280BDA3000C0B207F0EB
:1034700099FB02003100C9B2DF4803F088FC761CDA
:10348000EFE7DD4EDFF8EC2A0321300003F07FFC8C
:10349000DFF8E42A0421300003F079FC04E06968D5
:1034A000DFF8FC0403F073FC0020BDEC048B70BD5E
:1034B0006765740073657400ACC504083F000000C4
:1034C00060B70408B4C50408A0BF0408BCC504085C
:1034D00074C4040870B52DED048B82B004000D0097
:1034E000B1A16868FCF762FE00283AD0A8680028FD
:1034F00031D0A86803F0F3F9C0B207F092FBB0EE48
:10350000408AF0EE608AB0EE419AA86803F0E7F9CD
:10351000C0B207F047FB0100DFF8000B03F037FCF7
:103520000321B0EE480A012003F00AF8DFF8140B7B
:1035300003F02DFC0321B0EE680A012003F000F82F
:10354000DFF8040B03F023FC0321B0EE490A01204D
:1035500002F0F6FF23E1A968DFF8440403F017FC4A
:103560001DE192A16868FCF721FE002849D0A868F7
:1035700000283CD0E868002839D02869002836D0D7
:103580006869002833D0E86808F00DF951EC100B99
:1035900008F01CF900EE100AB0EE408A286908F025
:1035A00002F951EC100B08F011F900EE100AF0EEE0
:1035B000408A686908F0F7F851EC100B08F006F93A
:1035C00000EE100AB0EE409AA86803F088F9B0EE59
:1035D000480AF0EE680AB0EE491AC0B207F04FFB95
:1035E000C0B20100DFF89C0A03F0D1FBD7E06869A4
:1035F00000902B69EA68A968DFF88C0A03F0C7FB22
:10360000CDE0DFF8881A6868FCF7D0FD002839D0D3
:10361000A868002831D0A86803F061F9C0B207F0AB
:1036200085FCB0EE408AF0EE608AB0EE419AA86860
:1036300003F055F9C0B207F0B5FA0100DFF8DC0974
:1036400003F0A5FB0321B0EE480A012002F078FF49
:10365000DFF8F00903F09BFB0321B0EE680A0120BC
:1036600002F06EFFDFF8E00903F091FB0321B0EEFA
:10367000490A012002F064FF91E0A968C84803F0FC
:1036800086FB8CE0DFF8A01A6868FCF78FFD002845
:1036900049D0A86800283CD0E868002839D02869BB
:1036A000002836D06869002833D0E86808F07BF835
:1036B00051EC100B08F08AF800EE100AB0EE408AC8
:1036C000286908F070F851EC100B08F07FF800EE54
:1036D000100AF0EE408A686908F065F851EC100BAA
:1036E00008F074F800EE100AB0EE409AA86803F0F3
:1036F000F6F8B0EE480AF0EE680AB0EE491AC0B229
:1037000007F042FCC0B20100DFF8780903F03FFB8C
:1037100045E0686900902B69EA68A968DFF86809E4
:1037200003F035FB3BE0686800280CD0DFF8F417A5
:103730006868FCF73BFD002805D120A16868FCF70C
:1037400035FD002827D0DFF8B40A03F020FBDFF8AE
:10375000B00A03F01CFBDFF8AC0A03F018FBDFF83B
:10376000A80A03F014FBDFF8A40A03F010FB0A20F8
:1037700002F0B7FE00263000C0B203280FDA300096
:10378000C0B207F00FFA02003100C9B21A4803F0C4
:10379000FEFA761CEFE76968814803F0F8FA00202A
:1037A00002B0BDEC048B70BD676574007365740076
:1037B000C4C50408ACA70408C4A704083F0000005F
:1037C000CCC50408DCA70408D4C5040800100240D6
:1037D000CCB10408E0B1040808940408846B040820
:1037E000B86B0408EC6B0408206C0408546C0408E3
:1037F000886C0408BC6C0408D0B8040870B52DEDC2
:10380000028B04000D00DFF8081A6868FCF7CEFC94
:1038100000284CD0A868002844D0A86807F0C3FF4F
:1038200051EC100B0022002308F004F83AD8A868E5
:1038300007F0B9FF51EC100B0122DFF8D83909F07D
:10384000A5FB2FD2E868002827D0E86803F047F8E6
:10385000002822D4E86803F042F802281DDAA8689C
:1038600007F0A1FFB0EE408AF0EE608AE86803F04E
:1038700036F8060051EC180B07F0A8FF00EE100A0E
:103880003000C0B20CF0D8FDE86803F028F8010061
:10389000DFF8840903F07BFA7EE0DFF8800903F0AB
:1038A00076FA79E0DFF8780903F071FA74E0DFF86E
:1038B00074196868FCF77AFC002822D0A8680028F0
:1038C0001AD0A86803F00BF8002815D4A86803F0F4
:1038D00006F8022810DAA86803F001F89FED310A13
:1038E000C0B20CF0A9FDA86802F0F9FF0100DFF8F2
:1038F000700A03F04CFA4FE0DFF8200903F047FAB2
:103900004AE0DFF8601A6868FCF750FC00281ED017
:10391000A868002816D0A86802F0E1FF002811D49A
:10392000A86802F0DCFF02280CDAA86802F0D7FFD2
:10393000C0B20CF0BFFDC0B20100DFF82C0A03F0EA
:1039400026FA29E0DFF8D40803F021FA24E06868B9
:1039500000280CD0DFF8CC156868FCF727FC00289D
:1039600005D113A16868FCF721FC002810D0DFF80E
:10397000FC0903F00CFADFF8F80903F008FADFF8A5
:10398000F40903F004FADFF8F00903F000FA03E0A9
:103990006968034803F0FBF90020BDEC028B70BDA1
:1039A000F0B0040800000000E0B80408F4A7040820
:1039B0003F000000A09D0408BC9D0408DCC504086D
:1039C0005CC50408D89D0408E4C5040878000020FC
:1039D00028940408ACBF0408B8BF0408F0B8040871
:1039E000C4BF040848940408E8770408147804085D
:1039F00070B52DED028B05000E00DFF8141870680D
:103A0000FCF7D4FB002843D0B06800283AD0F06817
:103A1000002837D0B06802F062FFC0B207F0F7FDAF
:103A20000100DFF81C0A03F0B2F9F06807F0BBFEF2
:103A300003210C0053EC102B0020DFF8081A0CF0C7
:103A4000CDFD07F0C3FE00EE100A2100012002F0B8
:103A500077FD8CA003F09BF9F06807F0A4FEB0EEB0
:103A6000408AF0EE608AB06802F039FF040051EC41
:103A7000180B07F0ABFE00EE100A2000C0B207F0F2
:103A800001FEFAE0B168DFF83C0A03F080F9F4E0E7
:103A9000DFF890177068FCF789FB00281CD0B0682D
:103AA000002813D0B06802F01AFFC0B207F0AFFDD3
:103AB0000100DFF8140A03F06AF9B06802F00FFFA2
:103AC0009FED710AC0B207F0DDFDD6E0B168DFF806
:103AD000F40903F05CF9D0E0DFF8F0197068FCF746
:103AE00065FB00281AD0B068002811D0B06802F039
:103AF000F6FEC0B207F08BFD0100DFF8D40903F039
:103B000046F9B06802F0EBFEC0B207F087FDB4E002
:103B1000B168DFF8B00903F03AF9AEE0DFF8B419A4
:103B20007068FCF743FB002843D0B06800283AD007
:103B3000F068002837D0B06802F0D1FEC0B207F0BC
:103B400066FD0100DFF8900903F021F9F06807F045
:103B50002AFE03210C0053EC102B0020DFF8E418A0
:103B60000CF03CFD07F032FE00EE100A21000120AF
:103B700002F0E6FC43A003F00AF9F06807F013FE38
:103B8000B0EE408AF0EE608AB06802F0A8FE040051
:103B900051EC180B07F01AFE00EE100A2000C0B21C
:103BA00007F0C4FD69E0B168DFF8180903F0EFF829
:103BB00063E0DFF828197068FCF7F8FA00281AD0DB
:103BC000B068002811D0B06802F089FEC0B207F0DA
:103BD0001EFD0100DFF8080903F0D9F8B06802F013
:103BE0007EFEC0B207F07EFD47E0B168DFF8D40882
:103BF00003F0CDF841E0706800280BD0C949706827
:103C0000FCF7D4FA002805D125A17068FCF7CEFA9C
:103C100000282DD0DFF8CC0803F0B9F80521DFF833
:103C2000C80803F0B4F8DFF8C40803F0B0F8DFF810
:103C3000C00803F0ACF8DFF8BC0803F0A8F8DFF820
:103C4000B80803F0A4F800242000C0B2052814DA54
:103C50002000C0B207F0DBFC02002100C9B2DFF88F
:103C60009C0803F094F8012002F03BFC641CEBE795
:103C70007168DFF8500803F08AF80020BDEC028B71
:103C800070BD0000202525000000000040780408D9
:103C90006C78040898780408504604085C4F0408BF
:103CA0003F000000108A04080CA80408F49D0408D2
:103CB000D0BF0408DCBF0408348A04082DE9FC41A5
:103CC00004000D00DFF838186868FCF76FFA002868
:103CD0000ED0A868002806D0A86802F000FEC0B286
:103CE0000CF08EFF1AE1DFF81C0803F050F815E124
:103CF000DFF814186868FCF759FA002802D00CF0B5
:103D000057FD0BE1DFF804186868FCF74FFA00284C
:103D100020D0A868002818D0E868002815D0E868E6
:103D200002F0DDFD0600A86802F0D9FD6A46310008
:103D3000C9B2C0B20CF0E6FE012840F0EF80009955
:103D4000DFF8CC0703F023F8E8E0DFF8B80703F06A
:103D50001EF8E3E0DFF8BC176868FCF727FA0028D4
:103D60001FD0A868002817D0E868002814D0286958
:103D7000002811D0286902F0B2FD0600E86802F0C0
:103D8000AEFD0700A86802F0AAFD32003900C9B2F2
:103D9000C0B20CF0FFFEC1E0DFF8680702F0F7FFE9
:103DA000BCE09DA16868FCF701FA00280ED0A86865
:103DB000002806D0A86802F092FDC0B20CF00CFDFD
:103DC000ACE0DFF8400702F0E2FFA7E09BA16868E3
:103DD000FCF7ECF900282CD099A1A868FCF7E6F9CB
:103DE000002809D0E868002806D0E86802F077FDCE
:103DF000C0B20CF057FD91E0A0A1A868FCF7D6F97D
:103E0000002811D0E86800280ED0286900280BD0BF
:103E1000286902F064FD0600E86802F060FD3100E8
:103E2000C0B20CF0AFFD79E0DFF8D80602F0AFFFCA
:103E300074E093A16868FCF7B9F900282FD08FA12E
:103E4000A868FCF7B3F9002824D0E868002821D03E
:103E5000286900281ED0686900281BD0A86900289E
:103E600018D0A86902F03BFD0600686902F037FD32
:103E70000700286902F033FD8046E86802F02FFD54
:103E80003300DBB23A00D2B24146C9B2C0B20CF044
:103E900036FD43E0DFF86C0602F079FF3EE068682B
:103EA00000280BD01F496868FCF780F9002805D16D
:103EB0009CA16868FCF77AF900282AD0DFF8580638
:103EC00002F065FFDFF8540602F061FFDFF85006EC
:103ED00002F05DFFDFF84C0602F059FF052002F00A
:103EE00000FBDFF8440602F052FFDFF8400602F064
:103EF0004EFFDFF83C0602F04AFF052002F0F1FA1F
:103F0000DFF8300602F043FFDFF82C0602F03FFF37
:103F100004E06968DFF8AC0502F039FF0020BDE875
:103F2000F6810000DCC30408588A0408C478040839
:103F3000844C040870B504000D00DFF8000602F0A0
:103F400026FFDFF8FC0502F022FFDFF8F865306895
:103F500000280DD00A2002F0C4FAB068002805D06D
:103F6000B2683168DFF8E00502F011FF0C36EEE7C9
:103F7000002070BDE8BF0408F4BF04083EB504008B
:103F80000D000CF0FDFE02900CF0FFFE0190DFF83A
:103F9000BC05C1880091838842880188DFF8B0059C
:103FA00002F0F5FE9DF80B0000909DF80A309DF898
:103FB00009209DF80810DFF89C0502F0E8FE9DF846
:103FC000070000909DF806309DF805209DF804102C
:103FD000DFF8840502F0DBFE00203EBD38B50400AA
:103FE0000D0003F062F8002032BDF8B504000D00AA
:103FF0000026DFF8680502F0CAFE0127A74208DAAA
:1040000055F827203900DFF8580502F0C0FE7F1C64
:10401000F4E70020F2BD000065727200F4B10408FC
:1040200038B504000D0074A002F0B1FE0A2002F0C1
:1040300058FA02F081FA002032BD0000646976006F
:1040400067657400ECC50408F4C5040838B50400BD
:104050000D006868002806D0686802F040FCC0B215
:104060000CF09CFE07E00CF09CFE0100C9B2DFF8EA
:10407000F40402F08CFE002032BD00007365740071
:104080006375720000C004087C8A0408FCC504083B
:1040900070B504000D00DFF874146868FCF786F84A
:1040A000002806D0A86802F01AFCC0B20AF0A6FBED
:1040B00035E0DFF860146868FCF778F800280CD069
:1040C000E86802F00CFC0600A86802F008FC310069
:1040D00089B2C0B20AF04EFB21E0686800280CD01B
:1040E000DFF884146868FCF761F8002805D10DA199
:1040F0006868FCF75BF800280CD0DFF8700402F069
:1041000046FEDFF86C0402F042FEDFF8680402F0BD
:104110003EFE04E06968DFF8AC0302F038FE0020E0
:1041200070BD00003F00000004C6040870B5040024
:104130000D00DFF844146868FCF738F8002818D040
:10414000A86800280FD0A86807F02DFB51EC100BD1
:1041500007F03CFB00EE100A0CF060FEDFF81C04D8
:1041600002F015FE46E0A968DFF8580302F00FFEE2
:1041700040E02C496868FCF719F8002808D09FED4A
:10418000760A0CF04BFEDFF8F80302F000FE31E097
:10419000DFF8F0136868FCF709F8002809D00CF084
:1041A0007DFE0600310089B2DFF8DC0302F0EFFD8E
:1041B00020E0686800280CD0DFF8AC136868FBF7D3
:1041C000F5FF002805D165A16868FBF7EFFF00281F
:1041D0000CD0DFF8B80302F0DAFDDFF8B40302F028
:1041E000D6FDDFF8B00302F0D2FD03E06968B54800
:1041F00002F0CDFD002070BD0A0A0A00A08A040862
:10420000807F0408A87F0408D07F0408F87F040892
:104210000CC604080000F03F109E040868940408CF
:104220008894040874C4040870B52DED028B040052
:104230000D007FA631006868FBF7B8FF00281AD090
:104240007CA1A868FBF7B2FF00280DD00026300043
:10425000C0B203287CDA3000C0B20CF095FF0A200F
:1042600002F03FF9761CF2E7A86802F038FBC0B212
:104270000CF08AFF6CE0DFF820136868FBF796FF0C
:10428000002802D00CF0C6FE62E0BB496868FBF76C
:104290008DFF002802D00DF037F859E0BF4968685B
:1042A000FBF784FF002802D00DF01EF850E062A159
:1042B0006868FBF77BFF00282AD03100A868FBF76D
:1042C00075FF00280DD00CF03BFFB0EE408A18EED1
:1042D000100A09F055FC02000B00B14802F057FD2E
:1042E00036E056A1A868FBF761FF00280BD0E8680C
:1042F00007F059FA51EC100B07F068FA00EE100ABB
:104300000CF022FF24E0A9686E4802F040FD1FE097
:10431000686800280BD094496868FBF747FF0028BD
:1043200005D10EA16868FBF741FF00280CD09D481D
:1043300002F02DFD9C4802F02AFD9C4802F027FD6A
:104340009B4802F024FD03E069685E4802F01FFD0F
:104350000020BDEC028B70BD000000003F0000009B
:104360002C9E0408C4C5040824A80408A8940408C2
:104370009C5D0408C8940408F06C040838B5040077
:104380000D002BA16868FBF711FF002830D0A8684A
:1043900002F0A5FA002812D10DF011F8002807D07C
:1043A0008448007804280ADB834802F0F0FC06E029
:1043B00080480078042802DB804802F0E8FCA86806
:1043C00002F08DFA012830D109F070FB002807D0E7
:1043D00078480078042828DB794802F0D8FC24E0EB
:1043E00074480078042820DB764802F0D0FC1CE0FA
:1043F000686800280BD05C496868FBF7D7FE002886
:1044000005D12FA16868FBF7D1FE002809D06E48BE
:1044100002F0BDFC6D4802F0BAFC6D4802F0B7FC3A
:1044200003E06968274802F0B2FC002032BD0000BA
:1044300067657400616C6C006C696D007365740075
:104440003CA804080000594038B504000D0061493B
:104450006868FBF7ABFE002809D05F49A868FBF746
:10446000A5FE00282AD05D4802F091FC26E05C49B8
:104470006868FBF79BFE002803D05A4802F087FCCF
:104480001CE0686800280BD037496868FBF78EFE8F
:10449000002805D10AA16868FBF788FE002809D02A
:1044A0003A4802F074FC504802F071FC4F4802F0A8
:1044B0006EFC03E06968034802F069FC002032BD2D
:1044C0003F000000F0B0040800B9040814C6040856
:1044D00008B204081CC604082080040824C6040886
:1044E000489E0408C48A0408D0610408488004086F
:1044F0007080040898800408C0800408D0B80408BC
:104500002CC60408F0B7040834C6040894C4040890
:10451000649E04088CC40408E88A0408F07804083F
:10452000DC5D04082C660408246D04080C62040891
:10453000B0590408586D04084862040854A80408D7
:104540001CB20408C43004083CC604086CC6040845
:104550006CA8040884A804089CA8040810B90408DE
:1045600030B2040844C60408DCC30408E894040814
:10457000E8710408809E04086CC40408B4A8040808
:1045800044B204085CC50408CCA804089C9E040836
:104590001C5E0408E88004084CC6040874C40408BF
:1045A00020B9040848940408108104081C79040800
:1045B0003881040878000020B89E0408E4A80408A4
:1045C000D49E0408FCA8040814A904086081040807
:1045D0008881040854C604085CC6040858B204085C
:1045E00064C6040830B90408187204084872040844
:1045F00081EA00039B0717D1820707D010F8012B2F
:1046000011F8013BBAB19A42F6D014E002680B6887
:104610009A42A2F1013301BF934313F0803F50F857
:10462000042F51F8043FF3D010F8012B11F8013B8F
:104630000AB19A42F8D0D01A704730B4002513E07E
:1046400050F8042BD30744BFA9F101039A18091F9E
:10465000042942F8045BFAD213468C0744BF158044
:104660009B1CC90748BF1D7050F8041B0029E7D1E7
:1046700030BC70472DE9FB4F82B006001700DDF813
:1046800038800F9CDDF84090DDF844A03000002811
:1046900007D1502080F31188BFF34F8FBFF36F8F86
:1046A000FEE7B8F10A0F07D3502080F31188BFF35B
:1046B0004F8FBFF36F8FFEE74946380080B200F09E
:1046C000A1FD0500002D61D0286B390089B200EBF7
:1046D0008100001FC008C0000190019810F0070F72
:1046E00007D0502080F31188BFF34F8FBFF36F8F37
:1046F000FEE7380080B200905346424603992800F6
:1047000000F0D0FC049A310001980CF067FE28609C
:10471000002C00D025600CF0E2FEDFF82C170868B2
:10472000401C0860DFF824271068002806D11560B7
:10473000086801280CD100F0EDFC09E0DFF87C07E7
:104740000068002804D11068C06A804500D3156055
:10475000DFF86C070168491C016000686864DFF8D5
:1047600064170A680123E86A83401A430A60291D16
:10477000DFF85427EB6A1420434302EB03000CF0EC
:104780005BFF5FF0010B0CF0C4FE01E05FF0FF3B4C
:10479000BBF1010F13D1DFF82407006800280ED009
:1047A000DFF8A8060068C06A404508D25FF0805074
:1047B000DFF800180860BFF34F8FBFF36F8F5846C4
:1047C00005B0BDE8F08F38B504000CF088FE002C71
:1047D00003D1DFF87806056800E02500281D0CF0FD
:1047E00052FF00280FD1DFF8E016EA6A1420424396
:1047F0008858002807D1DFF8CC160A680123E86A38
:1048000083409A430A60A86A002803D015F1180073
:104810000CF039FF291DDFF8B4060CF00DFFDFF8AE
:1048200008070168491C0160DFF894060168491C0B
:1048300001600CF06EFEDFF884060068002821D0CD
:10484000DFF808060068854216D1DFF8E006006848
:10485000002807D0502080F31188BFF34F8FBFF39B
:104860006F8FFEE75FF08050DFF848170860BFF3F6
:104870004F8FBFF36F8F05E00CF031FE00F067FD46
:104880000CF047FE31BDF8B504000025002C2AD0FD
:10489000DFF898060068002807D0502080F31188C0
:1048A000BFF34F8FBFF36F8FFEE700F028F9DFF8FB
:1048B0000807006820180600DFF890753868001DAA
:1048C0000CF0E1FE002808D13868DFF8F8150A6816
:1048D0000123C06A83409A430A60300000F06EFCF6
:1048E00000F013F90500002D08D15FF08050DFF8CB
:1048F000C4160860BFF34F8FBFF36F8FF1BD70B563
:1049000004000CF0ECFD002C03D1DFF84005056835
:1049100000E02500281D0CF0B6FE00280FD1DFF8BE
:10492000A815EA6A142042438858002807D1DFF806
:1049300094150A680123E86A83409A430A60A86ACA
:10494000002803D015F118000CF09DFEDFF82C674D
:10495000291D30000CF070FE0CF0DBFDDFF8EC14CC
:104960000868854227D1DFF854050068002816D072
:10497000DFF8B8050068002807D0502080F31188C0
:10498000BFF34F8FBFF36F8FFEE75FF08050DFF80C
:1049900024160860BFF34F8FBFF36F8F16E03068A7
:1049A000DFF8A4241268904202D1002008600DE0D4
:1049B00000F0FDF90AE0DFF804050068002805D0E2
:1049C0000CF08DFD00F0C3FC0CF0A3FD70BD10B425
:1049D000020000201300002A07D1502181F3118822
:1049E000BFF34F8FBFF36F8FFEE75969DFF88C4637
:1049F000A14209D1996ADFF83C4AA14204D0996AE0
:104A0000002901D10121080010BC704770B50400D5
:104A10002500002C07D1502080F31188BFF34F8F61
:104A2000BFF36F8FFEE7002D30D0DFF820643068D1
:104A300085422BD00CF053FD2800FFF7C8FF01285A
:104A400022D1281D0CF01FFEDFF878140A6801231C
:104A5000E86A83401A430A60291DDFF86C24EB6A78
:104A60001420434302EB03000CF0E6FDE86A3168D2
:104A7000C96A884208D35FF08050DFF88417086065
:104A8000BFF34F8FBFF36F8F0CF043FD70BD1FB5A9
:104A90000020039000200290002001900020009050
:104AA00000238022DFF890190FF2D550FFF7E2FDC6
:104AB0000400012C02D10CF0FBFD0400012C13D1E9
:104AC000502080F31188BFF34F8FBFF36F8F012009
:104AD000DFF8E81308600020DFF8DC14086001F05C
:104AE0006DFD0CF0A2FC09E0002C07D1502080F3F2
:104AF0001188BFF34F8FBFF36F8FFEE71FBDDFF845
:104B00002C040168491C0160704770B50025DFF86E
:104B10001C643068002807D1502080F31188BFF34F
:104B20004F8FBFF36F8FFEE70CF0D9FC3068401E4B
:104B300030603068002853D1C348006800284FD047
:104B4000DFF8F0180868002826D0C868C06804009C
:104B500014F118000CF097FD201D0CF094FDDFF807
:104B600064130A680123E06A83401A430A60211D26
:104B7000DFF85423E36A1420434302EB03000CF0F4
:104B80005BFDE06AB1490968C96A8842D8D301204F
:104B9000DFF878190860D3E7DFF86C69306800281F
:104BA0000ED0306800280BD000F07BF8002803D02E
:104BB0000120DFF8581908603068401E3060F0E7C7
:104BC000DFF84809006801280AD1012005005FF0DC
:104BD0008050DFF8E0130860BFF34F8FBFF36F8F93
:104BE0000CF097FC280070BDDFF8CC03006870471C
:104BF0009548006870472DE9F84F06000F00150032
:104C00005FF000080A24FFF77AFF8F4800688742A8
:104C100042D3641E0122AC48142101FB04F101447B
:104C20005FEA4810304400F01BFB10EB08008046A0
:104C3000002CEED10222DFF8300401685FEA481050
:104C4000304400F00DFB814619EB08090222DFF821
:104C5000280401685FEA4910304400F001FB8246F5
:104C60001AEB090A042299495FEA4A10304400F01D
:104C7000F7FA83461BEB0A0B0322DFF800145FEA06
:104C80004B10304400F0ECFA10EB0B008046002D86
:104C900002D001F0CFFC2860FFF737FF4046BDE8A7
:104CA000F28F2DE9F0410027A048006800286FD15D
:104CB000DFF804030168491C01600468002C1CD162
:104CC000DFF8A41308680068002807D0502080F39C
:104CD0001188BFF34F8FBFF36F8FFEE7D1F80080CD
:104CE000DFF8940302680A60C0F80080DFF820084B
:104CF0000168491C016000F02AFBDFF81888D8F829
:104D00000000844238D3DFF8601308680068002888
:104D100004D15FF0FF30C8F800002DE00868C068DB
:104D2000C068050068680600B44202D2C8F8006096
:104D300022E0281D0CF0A7FCA86A002803D015F17A
:104D400018000CF0A0FC5F490A680123E86A834060
:104D50001A430A60291D5C4AEB6A1420434302EBA4
:104D600003000CF069FCE86A38490968C96A88429E
:104D7000C9D301200700C6E7534934480068C26A16
:104D8000142042438858022807D30120070004E07A
:104D9000DFF874070168491C0160DFF870070068DC
:104DA000002801D0012007003800BDE8F08110B5CF
:104DB0005E480068002804D00120DFF85017086022
:104DC00040E00020DFF844170860DFF84C4701F0AE
:104DD00031FC2060DFF8441708682268904207D24F
:104DE0001A480268536D2068C31808681B1A536577
:104DF0002068086033480068B0FA80F1D1F11F01E3
:104E00001422314B02FB01F01858002807D1502022
:104E100080F31188BFF34F8FBFF36F8FFEE702FB64
:104E200001F203EB0200426852684260426810F1EE
:104E300008039A4202D14268526842604068C068E2
:104E4000024A106010BD0000A8E7002098E700208B
:104E5000F8B504000D00002C07D1502080F3118814
:104E6000BFF34F8FBFF36F8FFEE7DFF8B876386878
:104E700010F1180120000CF0EBFB3868001D0CF05D
:104E800002FC002807D138680E490A680123C06A6D
:104E900083409A430A6015F1010F05D13868011D5E
:104EA00076480CF0C9FB07E0DFF880060068281898
:104EB0000600300000F082F9F1BD0000B4E70020E8
:104EC000C4E70020B0E70020F8DC00206CE50020FB
:104ED00070B504000D00002C07D1502080F311881C
:104EE000BFF34F8FBFF36F8FFEE7DFF83866306890
:104EF00010F1180120000CF09FFB3068001D0CF031
:104F0000C2FB002808D13068DFF81C160A680123AC
:104F1000C06A83409A430A60DFF810060668AE193B
:104F2000300000F04BF970BDA4E70020C8E7002076
:104F300038B50500E868C468002C07D1502080F31C
:104F40001188BFF34F8FBFF36F8FFEE714F1180086
:104F50000CF099FBDFF8D8050068002815D1201D5A
:104F60000CF091FBDFF8C0150A680123E06A83406A
:104F70001A430A60211DDFF8BC25E36A142043436D
:104F800002EB03000CF058FB05E014F11801DFF808
:104F9000A4040CF051FBDFF88C050068C06AE16ADC
:104FA000884205D201200121DFF87425116000E05C
:104FB000002032BD04ED00E0ACE70020002807D15E
:104FC000502181F31188BFF34F8FBFF36F8FFEE73E
:104FD000DFF83C1509680160DFF850150968416089
:104FE0007047F8B504000D00002C07D1502080F365
:104FF0001188BFF34F8FBFF36F8FFEE7002D07D1EE
:10500000502080F31188BFF34F8FBFF36F8FFEE7FF
:105010000CF065FADFF814050668286810F1010F36
:1050200001D100271AE0DFF8E8040068216888420F
:1050300004D06068864201D301270FE06068301A0F
:105040002968884209D22968891B6068411829604B
:105050002000FFF7B3FF002700E001270CF059FA0A
:105060003800F2BD000000009CE700200120DFF8BE
:10507000B014086070470000A0E7002080E5002021
:1050800010B5040000F070F8DFF8A80400680228EA
:10509000F8D35FF080505A490860BFF34F8FBFF3D9
:1050A0006F8FEFE72DE9F04104000D0016001F009F
:1050B0005FF00008B8F1100F0CD215F8080004EBEF
:1050C000080181F8340015F80800002802D018F112
:1050D0000108EFE7002084F843000A2E01D30920DD
:1050E0000600E662E66400202065201D0CF0A1FAAF
:1050F00014F118000CF09DFA2461D6F10A00A061A9
:105100006462002060650020A065002084F85C00D7
:10511000BDE8F08170B500240A2C09D2DFF8140430
:10512000142101FB04F108440CF074FA641CF3E749
:10513000DFF8045428000CF06DFADFF8006430004A
:105140000CF068FABB480CF065FADFF8F4030CF0D9
:1051500061FADFF8F0030CF05DFADFF8EC030560AC
:10516000DFF8E803066070BD70B5DFF8E453286827
:10517000002822D0FFF7C3FCDFF8C46330680028A2
:1051800001D1012400E00024FFF7BFFC002CECD18A
:105190000CF0A5F9F068C668301D0CF074FADFF861
:1051A000B4030168491E01602868401E28600CF0A5
:1051B000B0F9300000F0C2F8D7E770BD10B50400B8
:1051C000DFF8600301684C60DFF8601309688C4207
:1051D00007D20068011DDFF8740300680CF038FA8C
:1051E0000CE00068011DDFF8600300680CF030FA85
:1051F000DFF8200301688C4200D2046010BD00007B
:1052000004ED00E02DE9F84307000D00002D06D164
:10521000380080B280000CF081FC060000E02E0017
:10522000002E0BD060200CF079FC0400002C01D083
:10523000266304E030000CF0D5FC00E00024002CD4
:105240000BD0380080B286005FF0A508D4F830900B
:1052500042463100484606F005FB2000BDE8F283D7
:105260002DE9F84304000D0016005FF000092868DE
:10527000002855D02800416849684160416810F114
:105280000802914202D14168496841604068C068A3
:1052900080462800416849684160416810F1080271
:1052A000914202D14168496841604068C068070086
:1052B0005FEA4910275017F134005FEA4911214491
:1052C0004860786C5FEA4911214488605FEA4910C0
:1052D00020440673F86A5FEA4911214408613000EE
:1052E000C0B2032807D1B86A002804D002205FEAC0
:1052F000491121440873F86C5FEA4911214448615F
:10530000786D5FEA491121448861386B00F00BF831
:105310005FEA49112144888319F101094745B8D151
:105320004846BDE8F283010000200A78A52A02D190
:10533000491C401CF9E7800880B2704710B5040092
:10534000206B0CF04FFC20000CF04CFC10BDDFF883
:10535000F82110680068002805D15FF0FF30DFF801
:10536000B421106007E01068C068C0680100486898
:10537000DFF8A02110607047DFF8E0010068002826
:1053800001D1012007E0DFF8A8010068002801D161
:10539000022000E0002070472DE9F04104002500C4
:1053A000002C44D0DFF8B081E86AD8F80010C96A50
:1053B00088423CD2A869002805D4D8F80000C06A09
:1053C000D0F10A00A861DFF86C6114276869E96A06
:1053D00079433144884226D1281D0CF054F9002825
:1053E0000CD1E86A78433058002807D1DFF87011F3
:1053F0000A680123E86A83409A430A60D8F80000EB
:10540000C06AE862DFF858110A680123E86A83403D
:105410001A430A60291DE86A07FB00F706EB07003C
:105420000CF00AF903E0D8F80000C06AE862BDE8B1
:10543000F081000058E500207CC7040870B5040026
:1054400025000026002C50D0DFF80C0100688542B2
:1054500007D0502080F31188BFF34F8FBFF36F8FB9
:10546000FEE7286D002807D1502080F31188BFF394
:105470004F8FBFF36F8FFEE7286D401E2865E86AE7
:10548000E96C884231D0286D00282ED1281D0CF0FF
:10549000FAF800280FD1DFF89C10EA6A1420424382
:1054A0008858002807D1DFF880100A680123E86ACD
:1054B00083409A430A60E86CE862E86AD0F10A0027
:1054C000A861DFF864100A680123E86A83401A4380
:1054D0000A60291DDFF85C20EB6A1420434302EBCD
:1054E00003000CF0A9F801200600300070BDDFF8C1
:1054F00068100868002803D00868026D521C026515
:105500000868704700000000B8E70020BCE70020F2
:10551000C0E7002028000020D0E70020CCE70020D2
:10552000BCE7002098E70020B0E70020ACE70020AF
:10553000C8E70020F8DC002030E5002044E500202A
:105540006CE5002080E500209CE70020A0E700201B
:10555000A4E70020A8E7002098E70020B4E7002097
:10556000B0E7002080B5012104200CF02FFC0121C0
:105570004FF480700CF048FC01215FF480000CF0C7
:1055800025FC01214FF480700CF04CFC00214FF4FD
:1055900080700CF047FC01BD1CB503208DF80400A1
:1055A00000208DF8070004200090DFF80C456946C4
:1055B000200009F021FF082000906946200009F032
:1055C0001BFF13BD80B538208DF8000008208DF832
:1055D000010000208DF8020001208DF803006846CC
:1055E0000CF045FC01BD18B58FB0DFF894442000E5
:1055F0000CF086FC20000CF061FD0028FAD10020A0
:105600000090DFF880040190DFF88404029000200D
:10561000039002200490002005904FF480600690D3
:105620004FF4006007904FF4005008904FF48070E2
:1056300009905FF400300A9000200B9001200C903C
:1056400000200D9000200E90694620000CF0FAFC1E
:105650000122102120000CF03BFD012120000CF064
:105660001BFD20000CF02AFD0128FAD110B010BD5E
:1056700010B58AB0002006904FF4706009900020A9
:1056800008905FF44030079006A80CF0DDFD002084
:10569000009001208DF8040001208DF80500002005
:1056A0000290002003900020049002208DF8140046
:1056B000DFF80844694620000CF0A0FD0723022211
:1056C0000C2120000CF0DFFD072301220D2120001A
:1056D0000CF0D9FD012120000CF076FE0121200004
:1056E0000CF064FE012120000CF0BFFD0AB010BDDB
:1056F00080B5FFF737FFFFF776FFFFF763FFFFF790
:105700004BFFFFF7B5FF01BD10B5DFF87443002272
:10571000102120000CF0DCFC002120000CF0BCFC6F
:1057200020000CF0CBFC0028FAD1DFF890430021D8
:1057300020000CF049FE002120000CF037FE002173
:1057400020000CF092FD10BD10B5DFF834430122AB
:10575000102120000CF0BCFC012120000CF09CFC6E
:1057600020000CF0ABFC0128FAD1DFF850430121F6
:1057700020000CF029FE012120000CF017FE012171
:1057800020000CF072FD20000CF00BFE10BD10B5D7
:105790000400200080B2212809DAFFF7B5FFA4B287
:1057A000610089B2B6480CF085FCB748048010BD92
:1057B00070B4002301248C421CD24D1E2A00A24248
:1057C00016D330F8125000EB420636F8026CB542A0
:1057D0000CD200EB420535F8025C2B0030F8125079
:1057E00000EB420626F8025C20F81230521EE6E773
:1057F000641CE0E770BC70472DE9F04F91B00400E5
:105800000D00160001A840210CF0F4FD00275FF008
:105810000008DFF87492B9F8000080450CD29C486B
:1058200000EB88002100C9B230F8110001A921F86D
:10583000180018F10108ECE7B9F80000012802D1BE
:10584000BDF8040033E0B9F8000002280AD1BDF821
:105850000400BDF8061011FA80F0022190FBF1F06F
:1058600080B224E0B9F8001001A8FFF7A1FFB9F851
:105870000090B9EB0509B9EB06095FEA4900009011
:1058800001A800EB450A0DF1040B009A5146584659
:1058900006F01CF80021494506D201A830F8110095
:1058A00017FA80F7491CF6E7B7FBF9F080B211B0A0
:1058B000BDE8F08FF8B590B00600684640210CF0C6
:1058C00099FD00277048018802294ADB0088401EA4
:1058D0000400002005002800210080B289B288421F
:1058E00010D26B48290089B200EB81003100C9B2A7
:1058F00000EB4100808869462A0092B221F812002C
:105900006D1CE8E7210089B26846FFF751FF2000CF
:1059100080B2022190FBF1F201FB1200002808D0B6
:10592000200080B2022190FBF1F0694631F81000AE
:105930001CE0200080B2022190FBF1F0694601EBEF
:10594000400030F8021C200080B2022290FBF2F0EE
:105950006A4632F81000411889B2022091FBF0F03B
:1059600004E04B483100C9B230F8110080B211B0E8
:10597000F0BD5349C0B231F810007047000000007C
:10598000F8B52DED028B414801F001FA0025280001
:105990003D49098880B2884251D23D4E280080B2EC
:1059A00036F820103B4801F0F2F99FED3B8B0321C4
:1059B0000C00280080B236F820000CF01FFD53ECDC
:1059C000182B0AF00BFE0022384B0CF025FD05F0D9
:1059D000FDFE00EE100A2100062000F0B1FD304F60
:1059E0003878062802DB2FA001F0D1F9280080B218
:1059F00006EB800041882C4801F0C9F903210C0016
:105A0000280080B206EB800040880CF0F7FC53ECD5
:105A1000182B0AF0E3FD0022244B0CF0FDFC05F0EE
:105A2000D5FE00EE100A2100062000F089FD38782E
:105A3000062802DB1EA001F0AAF96D1CA7E721A031
:105A400001F0A5F9BDEC028BF1BD38B50C4C194D38
:105A5000290020000CF05FFB00280FD02900200057
:105A60000CF083FB0024022C08D22000C0B2FFF708
:105A700021FF134921F81400641CF4E731BD000034
:105A8000106402404C2001406800002068C10408F6
:105A90006CE10020ECC60408000000000000044097
:105AA0007800002020562C00F4C6040800FEAF4009
:105AB0002056000020800010000802400020014015
:105AC00024E700200A0000001FB5DFF80C49002081
:105AD0002070012060700020A0700020E070002085
